{
  "address": "0xDBcB8A64f89CC5F028b18a45E59fd99EAA9AF34a",
  "abi": [
    {
      "inputs": [
        {
          "internalType": "contract IERC20",
          "name": "initBnt",
          "type": "address"
        },
        {
          "internalType": "contract IERC20",
          "name": "initWeth",
          "type": "address"
        },
        {
          "internalType": "address",
          "name": "initProtocolWallet",
          "type": "address"
        },
        {
          "components": [
            {
              "internalType": "contract IBancorNetworkV2",
              "name": "bancorNetworkV2",
              "type": "address"
            },
            {
              "internalType": "contract IBancorNetwork",
              "name": "bancorNetworkV3",
              "type": "address"
            },
            {
              "internalType": "contract IUniswapV2Router02",
              "name": "uniV2Router",
              "type": "address"
            },
            {
              "internalType": "contract ISwapRouter",
              "name": "uniV3Router",
              "type": "address"
            },
            {
              "internalType": "contract IUniswapV2Router02",
              "name": "sushiswapRouter",
              "type": "address"
            },
            {
              "internalType": "contract ICarbonController",
              "name": "carbonController",
              "type": "address"
            },
            {
              "internalType": "contract IVault",
              "name": "balancerVault",
              "type": "address"
            },
            {
              "internalType": "contract ICarbonPOL",
              "name": "carbonPOL",
              "type": "address"
            }
          ],
          "internalType": "struct BancorArbitrage.Platforms",
          "name": "platforms",
          "type": "tuple"
        }
      ],
      "stateMutability": "nonpayable",
      "type": "constructor"
    },
    {
      "inputs": [],
      "name": "AccessDenied",
      "type": "error"
    },
    {
      "inputs": [],
      "name": "AlreadyInitialized",
      "type": "error"
    },
    {
      "inputs": [],
      "name": "InvalidAddress",
      "type": "error"
    },
    {
      "inputs": [],
      "name": "InvalidCarbonPOLTrade",
      "type": "error"
    },
    {
      "inputs": [],
      "name": "InvalidCurvePool",
      "type": "error"
    },
    {
      "inputs": [],
      "name": "InvalidETHAmountSent",
      "type": "error"
    },
    {
      "inputs": [],
      "name": "InvalidFee",
      "type": "error"
    },
    {
      "inputs": [],
      "name": "InvalidFlashLoanCaller",
      "type": "error"
    },
    {
      "inputs": [],
      "name": "InvalidFlashloanFormat",
      "type": "error"
    },
    {
      "inputs": [],
      "name": "InvalidFlashloanPlatformId",
      "type": "error"
    },
    {
      "inputs": [],
      "name": "InvalidInitialAndFinalTokens",
      "type": "error"
    },
    {
      "inputs": [],
      "name": "InvalidRouteLength",
      "type": "error"
    },
    {
      "inputs": [],
      "name": "InvalidSourceToken",
      "type": "error"
    },
    {
      "inputs": [],
      "name": "InvalidTradePlatformId",
      "type": "error"
    },
    {
      "inputs": [],
      "name": "InvalidWethTrade",
      "type": "error"
    },
    {
      "inputs": [],
      "name": "MinTargetAmountNotReached",
      "type": "error"
    },
    {
      "inputs": [],
      "name": "MinTargetAmountTooHigh",
      "type": "error"
    },
    {
      "inputs": [],
      "name": "SourceAmountTooHigh",
      "type": "error"
    },
    {
      "inputs": [],
      "name": "ZeroValue",
      "type": "error"
    },
    {
      "anonymous": false,
      "inputs": [
        {
          "indexed": true,
          "internalType": "address",
          "name": "caller",
          "type": "address"
        },
        {
          "indexed": false,
          "internalType": "uint16[]",
          "name": "platformIds",
          "type": "uint16[]"
        },
        {
          "indexed": false,
          "internalType": "address[]",
          "name": "tokenPath",
          "type": "address[]"
        },
        {
          "indexed": false,
          "internalType": "address[]",
          "name": "sourceTokens",
          "type": "address[]"
        },
        {
          "indexed": false,
          "internalType": "uint256[]",
          "name": "sourceAmounts",
          "type": "uint256[]"
        },
        {
          "indexed": false,
          "internalType": "uint256[]",
          "name": "protocolAmounts",
          "type": "uint256[]"
        },
        {
          "indexed": false,
          "internalType": "uint256[]",
          "name": "rewardAmounts",
          "type": "uint256[]"
        }
      ],
      "name": "ArbitrageExecuted",
      "type": "event"
    },
    {
      "anonymous": false,
      "inputs": [
        {
          "indexed": false,
          "internalType": "uint8",
          "name": "version",
          "type": "uint8"
        }
      ],
      "name": "Initialized",
      "type": "event"
    },
    {
      "anonymous": false,
      "inputs": [
        {
          "indexed": false,
          "internalType": "uint32",
          "name": "prevPercentagePPM",
          "type": "uint32"
        },
        {
          "indexed": false,
          "internalType": "uint32",
          "name": "newPercentagePPM",
          "type": "uint32"
        },
        {
          "indexed": false,
          "internalType": "uint256",
          "name": "prevMaxAmount",
          "type": "uint256"
        },
        {
          "indexed": false,
          "internalType": "uint256",
          "name": "newMaxAmount",
          "type": "uint256"
        }
      ],
      "name": "RewardsUpdated",
      "type": "event"
    },
    {
      "anonymous": false,
      "inputs": [
        {
          "indexed": true,
          "internalType": "bytes32",
          "name": "role",
          "type": "bytes32"
        },
        {
          "indexed": true,
          "internalType": "bytes32",
          "name": "previousAdminRole",
          "type": "bytes32"
        },
        {
          "indexed": true,
          "internalType": "bytes32",
          "name": "newAdminRole",
          "type": "bytes32"
        }
      ],
      "name": "RoleAdminChanged",
      "type": "event"
    },
    {
      "anonymous": false,
      "inputs": [
        {
          "indexed": true,
          "internalType": "bytes32",
          "name": "role",
          "type": "bytes32"
        },
        {
          "indexed": true,
          "internalType": "address",
          "name": "account",
          "type": "address"
        },
        {
          "indexed": true,
          "internalType": "address",
          "name": "sender",
          "type": "address"
        }
      ],
      "name": "RoleGranted",
      "type": "event"
    },
    {
      "anonymous": false,
      "inputs": [
        {
          "indexed": true,
          "internalType": "bytes32",
          "name": "role",
          "type": "bytes32"
        },
        {
          "indexed": true,
          "internalType": "address",
          "name": "account",
          "type": "address"
        },
        {
          "indexed": true,
          "internalType": "address",
          "name": "sender",
          "type": "address"
        }
      ],
      "name": "RoleRevoked",
      "type": "event"
    },
    {
      "inputs": [],
      "name": "DEFAULT_ADMIN_ROLE",
      "outputs": [
        {
          "internalType": "bytes32",
          "name": "",
          "type": "bytes32"
        }
      ],
      "stateMutability": "view",
      "type": "function"
    },
    {
      "inputs": [],
      "name": "PLATFORM_ID_BALANCER",
      "outputs": [
        {
          "internalType": "uint16",
          "name": "",
          "type": "uint16"
        }
      ],
      "stateMutability": "view",
      "type": "function"
    },
    {
      "inputs": [],
      "name": "PLATFORM_ID_BANCOR_V2",
      "outputs": [
        {
          "internalType": "uint16",
          "name": "",
          "type": "uint16"
        }
      ],
      "stateMutability": "view",
      "type": "function"
    },
    {
      "inputs": [],
      "name": "PLATFORM_ID_BANCOR_V3",
      "outputs": [
        {
          "internalType": "uint16",
          "name": "",
          "type": "uint16"
        }
      ],
      "stateMutability": "view",
      "type": "function"
    },
    {
      "inputs": [],
      "name": "PLATFORM_ID_CARBON_FORK",
      "outputs": [
        {
          "internalType": "uint16",
          "name": "",
          "type": "uint16"
        }
      ],
      "stateMutability": "view",
      "type": "function"
    },
    {
      "inputs": [],
      "name": "PLATFORM_ID_CARBON_POL",
      "outputs": [
        {
          "internalType": "uint16",
          "name": "",
          "type": "uint16"
        }
      ],
      "stateMutability": "view",
      "type": "function"
    },
    {
      "inputs": [],
      "name": "PLATFORM_ID_CURVE",
      "outputs": [
        {
          "internalType": "uint16",
          "name": "",
          "type": "uint16"
        }
      ],
      "stateMutability": "view",
      "type": "function"
    },
    {
      "inputs": [],
      "name": "PLATFORM_ID_SUSHISWAP",
      "outputs": [
        {
          "internalType": "uint16",
          "name": "",
          "type": "uint16"
        }
      ],
      "stateMutability": "view",
      "type": "function"
    },
    {
      "inputs": [],
      "name": "PLATFORM_ID_UNISWAP_V2_FORK",
      "outputs": [
        {
          "internalType": "uint16",
          "name": "",
          "type": "uint16"
        }
      ],
      "stateMutability": "view",
      "type": "function"
    },
    {
      "inputs": [],
      "name": "PLATFORM_ID_UNISWAP_V3_FORK",
      "outputs": [
        {
          "internalType": "uint16",
          "name": "",
          "type": "uint16"
        }
      ],
      "stateMutability": "view",
      "type": "function"
    },
    {
      "inputs": [],
      "name": "PLATFORM_ID_WETH",
      "outputs": [
        {
          "internalType": "uint16",
          "name": "",
          "type": "uint16"
        }
      ],
      "stateMutability": "view",
      "type": "function"
    },
    {
      "inputs": [
        {
          "components": [
            {
              "internalType": "uint16",
              "name": "platformId",
              "type": "uint16"
            },
            {
              "internalType": "contract IERC20[]",
              "name": "sourceTokens",
              "type": "address[]"
            },
            {
              "internalType": "uint256[]",
              "name": "sourceAmounts",
              "type": "uint256[]"
            }
          ],
          "internalType": "struct BancorArbitrage.Flashloan[]",
          "name": "flashloans",
          "type": "tuple[]"
        },
        {
          "components": [
            {
              "internalType": "uint16",
              "name": "platformId",
              "type": "uint16"
            },
            {
              "internalType": "contract Token",
              "name": "sourceToken",
              "type": "address"
            },
            {
              "internalType": "contract Token",
              "name": "targetToken",
              "type": "address"
            },
            {
              "internalType": "uint256",
              "name": "sourceAmount",
              "type": "uint256"
            },
            {
              "internalType": "uint256",
              "name": "minTargetAmount",
              "type": "uint256"
            },
            {
              "internalType": "uint256",
              "name": "deadline",
              "type": "uint256"
            },
            {
              "internalType": "address",
              "name": "customAddress",
              "type": "address"
            },
            {
              "internalType": "uint256",
              "name": "customInt",
              "type": "uint256"
            },
            {
              "internalType": "bytes",
              "name": "customData",
              "type": "bytes"
            }
          ],
          "internalType": "struct BancorArbitrage.TradeRoute[]",
          "name": "routes",
          "type": "tuple[]"
        }
      ],
      "name": "flashloanAndArbV2",
      "outputs": [],
      "stateMutability": "nonpayable",
      "type": "function"
    },
    {
      "inputs": [
        {
          "components": [
            {
              "internalType": "uint16",
              "name": "platformId",
              "type": "uint16"
            },
            {
              "internalType": "contract Token",
              "name": "sourceToken",
              "type": "address"
            },
            {
              "internalType": "contract Token",
              "name": "targetToken",
              "type": "address"
            },
            {
              "internalType": "uint256",
              "name": "sourceAmount",
              "type": "uint256"
            },
            {
              "internalType": "uint256",
              "name": "minTargetAmount",
              "type": "uint256"
            },
            {
              "internalType": "uint256",
              "name": "deadline",
              "type": "uint256"
            },
            {
              "internalType": "address",
              "name": "customAddress",
              "type": "address"
            },
            {
              "internalType": "uint256",
              "name": "customInt",
              "type": "uint256"
            },
            {
              "internalType": "bytes",
              "name": "customData",
              "type": "bytes"
            }
          ],
          "internalType": "struct BancorArbitrage.TradeRoute[]",
          "name": "routes",
          "type": "tuple[]"
        },
        {
          "internalType": "contract Token",
          "name": "token",
          "type": "address"
        },
        {
          "internalType": "uint256",
          "name": "sourceAmount",
          "type": "uint256"
        }
      ],
      "name": "fundAndArb",
      "outputs": [],
      "stateMutability": "payable",
      "type": "function"
    },
    {
      "inputs": [
        {
          "internalType": "bytes32",
          "name": "role",
          "type": "bytes32"
        }
      ],
      "name": "getRoleAdmin",
      "outputs": [
        {
          "internalType": "bytes32",
          "name": "",
          "type": "bytes32"
        }
      ],
      "stateMutability": "view",
      "type": "function"
    },
    {
      "inputs": [
        {
          "internalType": "bytes32",
          "name": "role",
          "type": "bytes32"
        },
        {
          "internalType": "uint256",
          "name": "index",
          "type": "uint256"
        }
      ],
      "name": "getRoleMember",
      "outputs": [
        {
          "internalType": "address",
          "name": "",
          "type": "address"
        }
      ],
      "stateMutability": "view",
      "type": "function"
    },
    {
      "inputs": [
        {
          "internalType": "bytes32",
          "name": "role",
          "type": "bytes32"
        }
      ],
      "name": "getRoleMemberCount",
      "outputs": [
        {
          "internalType": "uint256",
          "name": "",
          "type": "uint256"
        }
      ],
      "stateMutability": "view",
      "type": "function"
    },
    {
      "inputs": [
        {
          "internalType": "bytes32",
          "name": "role",
          "type": "bytes32"
        },
        {
          "internalType": "address",
          "name": "account",
          "type": "address"
        }
      ],
      "name": "grantRole",
      "outputs": [],
      "stateMutability": "nonpayable",
      "type": "function"
    },
    {
      "inputs": [
        {
          "internalType": "bytes32",
          "name": "role",
          "type": "bytes32"
        },
        {
          "internalType": "address",
          "name": "account",
          "type": "address"
        }
      ],
      "name": "hasRole",
      "outputs": [
        {
          "internalType": "bool",
          "name": "",
          "type": "bool"
        }
      ],
      "stateMutability": "view",
      "type": "function"
    },
    {
      "inputs": [],
      "name": "initialize",
      "outputs": [],
      "stateMutability": "nonpayable",
      "type": "function"
    },
    {
      "inputs": [
        {
          "internalType": "address",
          "name": "caller",
          "type": "address"
        },
        {
          "internalType": "contract IERC20",
          "name": "erc20Token",
          "type": "address"
        },
        {
          "internalType": "uint256",
          "name": "amount",
          "type": "uint256"
        },
        {
          "internalType": "uint256",
          "name": "feeAmount",
          "type": "uint256"
        },
        {
          "internalType": "bytes",
          "name": "data",
          "type": "bytes"
        }
      ],
      "name": "onFlashLoan",
      "outputs": [],
      "stateMutability": "nonpayable",
      "type": "function"
    },
    {
      "inputs": [
        {
          "internalType": "bytes",
          "name": "data",
          "type": "bytes"
        }
      ],
      "name": "postUpgrade",
      "outputs": [],
      "stateMutability": "nonpayable",
      "type": "function"
    },
    {
      "inputs": [
        {
          "internalType": "contract IERC20[]",
          "name": "tokens",
          "type": "address[]"
        },
        {
          "internalType": "uint256[]",
          "name": "amounts",
          "type": "uint256[]"
        },
        {
          "internalType": "uint256[]",
          "name": "feeAmounts",
          "type": "uint256[]"
        },
        {
          "internalType": "bytes",
          "name": "userData",
          "type": "bytes"
        }
      ],
      "name": "receiveFlashLoan",
      "outputs": [],
      "stateMutability": "nonpayable",
      "type": "function"
    },
    {
      "inputs": [
        {
          "internalType": "bytes32",
          "name": "role",
          "type": "bytes32"
        },
        {
          "internalType": "address",
          "name": "account",
          "type": "address"
        }
      ],
      "name": "renounceRole",
      "outputs": [],
      "stateMutability": "nonpayable",
      "type": "function"
    },
    {
      "inputs": [
        {
          "internalType": "bytes32",
          "name": "role",
          "type": "bytes32"
        },
        {
          "internalType": "address",
          "name": "account",
          "type": "address"
        }
      ],
      "name": "revokeRole",
      "outputs": [],
      "stateMutability": "nonpayable",
      "type": "function"
    },
    {
      "inputs": [],
      "name": "rewards",
      "outputs": [
        {
          "components": [
            {
              "internalType": "uint32",
              "name": "percentagePPM",
              "type": "uint32"
            },
            {
              "internalType": "uint256",
              "name": "maxAmount",
              "type": "uint256"
            }
          ],
          "internalType": "struct BancorArbitrage.Rewards",
          "name": "",
          "type": "tuple"
        }
      ],
      "stateMutability": "view",
      "type": "function"
    },
    {
      "inputs": [],
      "name": "roleAdmin",
      "outputs": [
        {
          "internalType": "bytes32",
          "name": "",
          "type": "bytes32"
        }
      ],
      "stateMutability": "pure",
      "type": "function"
    },
    {
      "inputs": [
        {
          "components": [
            {
              "internalType": "uint32",
              "name": "percentagePPM",
              "type": "uint32"
            },
            {
              "internalType": "uint256",
              "name": "maxAmount",
              "type": "uint256"
            }
          ],
          "internalType": "struct BancorArbitrage.Rewards",
          "name": "newRewards",
          "type": "tuple"
        }
      ],
      "name": "setRewards",
      "outputs": [],
      "stateMutability": "nonpayable",
      "type": "function"
    },
    {
      "inputs": [
        {
          "internalType": "bytes4",
          "name": "interfaceId",
          "type": "bytes4"
        }
      ],
      "name": "supportsInterface",
      "outputs": [
        {
          "internalType": "bool",
          "name": "",
          "type": "bool"
        }
      ],
      "stateMutability": "view",
      "type": "function"
    },
    {
      "inputs": [],
      "name": "version",
      "outputs": [
        {
          "internalType": "uint16",
          "name": "",
          "type": "uint16"
        }
      ],
      "stateMutability": "pure",
      "type": "function"
    },
    {
      "stateMutability": "payable",
      "type": "receive"
    }
  ],
  "transactionHash": "0x189a6ff3380461f0308eb9328fa908ff56181ffbf7a73d3e1dd8bbe8220daeb3",
  "args": [
    "0x1F573D6Fb3F13d689FF844B4cE37794d79a7FF1C",
    "0xC02aaA39b223FE8D0A0e5C4F27eAD9083C756Cc2",
    "0xba7d1581Db6248DC9177466a328BF457703c8f84",
    {
      "bancorNetworkV2": "0x2F9EC37d6CcFFf1caB21733BdaDEdE11c823cCB0",
      "bancorNetworkV3": "0xeEF417e1D5CC832e619ae18D2F140De2999dD4fB",
      "uniV2Router": "0x7a250d5630B4cF539739dF2C5dAcb4c659F2488D",
      "uniV3Router": "0xE592427A0AEce92De3Edee1F18E0157C05861564",
      "sushiswapRouter": "0xd9e1cE17f2641f24aE83637ab66a2cca9C378B9F",
      "carbonController": "0xC537e898CD774e2dCBa3B14Ea6f34C93d5eA45e1",
      "balancerVault": "0xBA12222222228d8Ba445958a75a0704d566BF2C8",
      "carbonPOL": "0xD06146D292F9651C1D7cf54A3162791DFc2bEf46"
    }
  ],
  "numDeployments": 10,
  "solcInputHash": "6be817a04fe2e22a0d0b5007549c73ee",
  "bytecode": "0x6101e06040523480156200001257600080fd5b506040516200659938038062006599833981016040819052620000359162000724565b826200004181620000d2565b826200004d81620000d2565b6001600160a01b03808716608090815286821660a09081528683166101c0528551831660c09081526020870151841660e0908152604088015185166101005260608801518516610120529287015184166101405290860151831661016052850151821661018052840151166101a052620000c6620000fd565b5050505050506200085e565b6001600160a01b038116620000fa5760405163e6c4247b60e01b815260040160405180910390fd5b50565b600054610100900460ff16158080156200011e5750600054600160ff909116105b806200013a5750303b1580156200013a575060005460ff166001145b620001a35760405162461bcd60e51b815260206004820152602e60248201527f496e697469616c697a61626c653a20636f6e747261637420697320616c72656160448201526d191e481a5b9a5d1a585b1a5e995960921b60648201526084015b60405180910390fd5b6000805460ff191660011790558015620001c7576000805461ff0019166101001790555b620001d16200021a565b8015620000fa576000805461ff0019169055604051600181527f7f26b83ff96e1f2b6a682f133852f6798a09c465da95921460cefb38474024989060200160405180910390a150565b600054610100900460ff16620002765760405162461bcd60e51b815260206004820152602b60248201526000805160206200657983398151915260448201526a6e697469616c697a696e6760a81b60648201526084016200019a565b6200028062000296565b6200028a620002fc565b620002946200036c565b565b600054610100900460ff16620002f25760405162461bcd60e51b815260206004820152602b60248201526000805160206200657983398151915260448201526a6e697469616c697a696e6760a81b60648201526084016200019a565b6200029462000402565b600054610100900460ff16620003585760405162461bcd60e51b815260206004820152602b60248201526000805160206200657983398151915260448201526a6e697469616c697a696e6760a81b60648201526084016200019a565b6200036262000464565b62000294620004c0565b600054610100900460ff16620003c85760405162461bcd60e51b815260206004820152602b60248201526000805160206200657983398151915260448201526a6e697469616c697a696e6760a81b60648201526084016200019a565b60408051808201909152620186a080825268056bc75e2d63100000602090920182905261012d805463ffffffff1916909117905561012e55565b600054610100900460ff166200045e5760405162461bcd60e51b815260206004820152602b60248201526000805160206200657983398151915260448201526a6e697469616c697a696e6760a81b60648201526084016200019a565b60018055565b600054610100900460ff16620002945760405162461bcd60e51b815260206004820152602b60248201526000805160206200657983398151915260448201526a6e697469616c697a696e6760a81b60648201526084016200019a565b600054610100900460ff166200051c5760405162461bcd60e51b815260206004820152602b60248201526000805160206200657983398151915260448201526a6e697469616c697a696e6760a81b60648201526084016200019a565b60fb805461ffff1916600a17905562000545600080516020620065598339815191528062000560565b620002946000805160206200655983398151915233620005ab565b600082815260976020526040808220600101805490849055905190918391839186917fbd79b86ffe0ab8e8776151514217cd7cacd52c909f66475c3af44e129f0b00ff9190a4505050565b620005b78282620005bb565b5050565b620005c78282620005e6565b600082815260c960205260409020620005e190826200068a565b505050565b60008281526097602090815260408083206001600160a01b038516845290915290205460ff16620005b75760008281526097602090815260408083206001600160a01b03851684529091529020805460ff19166001179055620006463390565b6001600160a01b0316816001600160a01b0316837f2f8788117e7eff1d82e926ec794901d17c78024a50270940304540a733656f0d60405160405180910390a45050565b6000620006a1836001600160a01b038416620006aa565b90505b92915050565b6000818152600183016020526040812054620006f357508154600181810184556000848152602080822090930184905584548482528286019093526040902091909155620006a4565b506000620006a4565b6001600160a01b0381168114620000fa57600080fd5b80516200071f81620006fc565b919050565b6000806000808486036101608112156200073d57600080fd5b85516200074a81620006fc565b60208701519095506200075d81620006fc565b60408701519094506200077081620006fc565b9250610100605f1982018113156200078757600080fd5b60405191508082016001600160401b0381118382101715620007b957634e487b7160e01b600052604160045260246000fd5b604052620007ca6060880162000712565b8252620007da6080880162000712565b6020830152620007ed60a0880162000712565b60408301526200080060c0880162000712565b60608301526200081360e0880162000712565b60808301526200082581880162000712565b60a0830152506200083a610120870162000712565b60c08201526200084e610140870162000712565b60e0820152939692955090935050565b60805160a05160c05160e05161010051610120516101405161016051610180516101a0516101c051615bef6200096a600039600081816117630152612fd8015260008181613357015281816133cf015261350c015260008181610e2d01528181611364015261303001526000612e5c015260006128dd01526000612ce2015260006129030152600081816106080152818161127401528181611b0e0152818161278401526128370152600081816125af01526126b501526000818161297f01528181612ae8015281816136ca015281816137000152818161376f01526137f90152600081816116f20152818161172a01528181611a9d0152818161325a01526132c30152615bef6000f3fe6080604052600436106101c65760003560e01c806383428014116100f7578063a217fddf11610095578063d0d479ff11610064578063d0d479ff14610539578063d547741f1461054c578063d8f3a0f81461056c578063f04f27071461058157600080fd5b8063a217fddf146104da578063a2195341146104ef578063a36f0d6014610504578063ca15c8731461051957600080fd5b806391d14854116100d157806391d14854146103ee57806393867fb51461043457806396bfaa9e146104675780639ec5a8941461048757600080fd5b806383428014146103815780638cd2403d146103965780639010d07c146103b657600080fd5b806336568abe1161016457806353487aa71161013e57806353487aa71461032e57806354fd4d501461034357806378c88229146103575780638129fc1c1461036c57600080fd5b806336568abe146102e457806345c9908014610304578063493b7e441461031957600080fd5b8063248a9ca3116101a0578063248a9ca314610251578063269c20e11461028f5780632e540b10146102a45780632f2ff15d146102c457600080fd5b806301ffc9a7146101d257806314d5c1a61461020757806323e30c8b1461022f57600080fd5b366101cd57005b600080fd5b3480156101de57600080fd5b506101f26101ed366004614609565b6105a1565b60405190151581526020015b60405180910390f35b34801561021357600080fd5b5061021c600181565b60405161ffff90911681526020016101fe565b34801561023b57600080fd5b5061024f61024a3660046147be565b6105fd565b005b34801561025d57600080fd5b5061028161026c366004614834565b60009081526097602052604090206001015490565b6040519081526020016101fe565b34801561029b57600080fd5b5061021c600481565b3480156102b057600080fd5b5061024f6102bf366004614a8b565b6106a4565b3480156102d057600080fd5b5061024f6102df366004614bcd565b61086b565b3480156102f057600080fd5b5061024f6102ff366004614bcd565b610895565b34801561031057600080fd5b5061021c600581565b34801561032557600080fd5b5061021c600381565b34801561033a57600080fd5b5061021c600981565b34801561034f57600080fd5b50600a61021c565b34801561036357600080fd5b5061021c600781565b34801561037857600080fd5b5061024f61093c565b34801561038d57600080fd5b5061021c600281565b3480156103a257600080fd5b5061024f6103b1366004614bfd565b610ace565b3480156103c257600080fd5b506103d66103d1366004614c6f565b610b56565b6040516001600160a01b0390911681526020016101fe565b3480156103fa57600080fd5b506101f2610409366004614bcd565b60009182526097602090815260408084206001600160a01b0393909316845291905290205460ff1690565b34801561044057600080fd5b507f2172861495e7b85edac73e3cd5fbb42dd675baadf627720e687bcfdaca025096610281565b34801561047357600080fd5b5061024f610482366004614c91565b610b75565b34801561049357600080fd5b5060408051808201825260008082526020918201528151808301835261012d5463ffffffff1680825261012e549183019182528351908152905191810191909152016101fe565b3480156104e657600080fd5b50610281600081565b3480156104fb57600080fd5b5061021c600881565b34801561051057600080fd5b5061021c600681565b34801561052557600080fd5b50610281610534366004614834565b610c85565b61024f610547366004614ca9565b610c9c565b34801561055857600080fd5b5061024f610567366004614bcd565b610dfd565b34801561057857600080fd5b5061021c600a81565b34801561058d57600080fd5b5061024f61059c366004614d35565b610e22565b60007fffffffff0000000000000000000000000000000000000000000000000000000082167f5a05180f0000000000000000000000000000000000000000000000000000000014806105f757506105f782610f15565b92915050565b336001600160a01b037f00000000000000000000000000000000000000000000000000000000000000001614158061063e57506001600160a01b0385163014155b15610675576040517fe17c49b700000000000000000000000000000000000000000000000000000000815260040160405180910390fd5b61067e81610fac565b61069d3361068c8486614e11565b6001600160a01b0387169190611009565b5050505050565b6106ac611084565b80516106b7816110f7565b8280516000036106f3576040517f4a7aa2a800000000000000000000000000000000000000000000000000000000815260040160405180910390fd5b60005b815181101561080a57600082828151811061071357610713614e24565b6020908102919091018101516040810151918101515182519193509081158061073c5750808214155b806107575750835161ffff1660021480156107575750600182115b1561078e576040517f4a7aa2a800000000000000000000000000000000000000000000000000000000815260040160405180910390fd5b60005b818110156107f4578381815181106107ab576107ab614e24565b60200260200101516000036107ec576040517f7c946ed700000000000000000000000000000000000000000000000000000000815260040160405180910390fd5b600101610791565b50505050506108038160010190565b90506106f6565b506000610817858561113d565b905061083d8560008151811061082f5761082f614e24565b602002602001015182611246565b600080610849876113f4565b91509150610859828288336115dc565b505050505061086760018055565b5050565b60008281526097602052604090206001015461088681611862565b610890838361186c565b505050565b6001600160a01b0381163314610932576040517f08c379a000000000000000000000000000000000000000000000000000000000815260206004820152602f60248201527f416363657373436f6e74726f6c3a2063616e206f6e6c792072656e6f756e636560448201527f20726f6c657320666f722073656c66000000000000000000000000000000000060648201526084015b60405180910390fd5b610867828261188e565b600054610100900460ff161580801561095c5750600054600160ff909116105b806109765750303b158015610976575060005460ff166001145b610a02576040517f08c379a000000000000000000000000000000000000000000000000000000000815260206004820152602e60248201527f496e697469616c697a61626c653a20636f6e747261637420697320616c72656160448201527f647920696e697469616c697a65640000000000000000000000000000000000006064820152608401610929565b600080547fffffffffffffffffffffffffffffffffffffffffffffffffffffffffffffff001660011790558015610a6057600080547fffffffffffffffffffffffffffffffffffffffffffffffffffffffffffff00ff166101001790555b610a686118b0565b8015610acb57600080547fffffffffffffffffffffffffffffffffffffffffffffffffffffffffffff00ff169055604051600181527f7f26b83ff96e1f2b6a682f133852f6798a09c465da95921460cefb38474024989060200160405180910390a15b50565b60fb54600090610ae39061ffff166001614e53565b905061ffff8116600a14610b23576040517f0dc149f000000000000000000000000000000000000000000000000000000000815260040160405180910390fd5b60fb80547fffffffffffffffffffffffffffffffffffffffffffffffffffffffffffff00001661ffff8316179055505050565b600082815260c960205260408120610b6e9083611961565b9392505050565b610b9f7f2172861495e7b85edac73e3cd5fbb42dd675baadf627720e687bcfdaca0250963361196d565b610bac6020820182614e80565b610bb5816119c9565b8160200135610bc381611a0c565b61012d5461012e5463ffffffff90911690610be16020860186614e80565b63ffffffff168263ffffffff16148015610bfe5750846020013581145b15610c0a575050505050565b8461012d610c188282614e9d565b507f707740459746824d259c9a0c2bfabcb04306f48ffc0c1c9c1404e990bf67d217905082610c4a6020880188614e80565b6040805163ffffffff938416815292909116602083810191909152908201849052870135606082015260800160405180910390a15050505050565b600081815260c9602052604081206105f790611a46565b610ca4611084565b82610cae816110f7565b81610cb881611a0c565b610d02848787610cc9600182614ee5565b818110610cd857610cd8614e24565b9050602002810190610cea9190614ef8565b610cfb906060810190604001614f36565b8534611a50565b610d176001600160a01b038516333086611c57565b610d29610d248688614f53565b611c99565b610d3d6001600160a01b0385163385611d5c565b6040805160018082528183019092526000916020808301908036833750506040805160018082528183019092529293506000929150602080830190803683370190505090508582600081518110610d9657610d96614e24565b60200260200101906001600160a01b031690816001600160a01b0316815250508481600081518110610dca57610dca614e24565b6020908102919091010152610dea8282610de48a8c614f53565b336115dc565b50505050610df760018055565b50505050565b600082815260976020526040902060010154610e1881611862565b610890838361188e565b336001600160a01b037f00000000000000000000000000000000000000000000000000000000000000001614610e84576040517fe17c49b700000000000000000000000000000000000000000000000000000000815260040160405180910390fd5b610e8d81610fac565b60005b845181101561069d57610f0d33848381518110610eaf57610eaf614e24565b6020026020010151868481518110610ec957610ec9614e24565b6020026020010151610edb9190614e11565b878481518110610eed57610eed614e24565b60200260200101516001600160a01b03166110099092919063ffffffff16565b600101610e90565b60007fffffffff0000000000000000000000000000000000000000000000000000000082167f7965db0b0000000000000000000000000000000000000000000000000000000014806105f757507f01ffc9a7000000000000000000000000000000000000000000000000000000007fffffffff000000000000000000000000000000000000000000000000000000008316146105f7565b60008082806020019051810190610fc3919061516b565b915091508151600003610fd95761089081611c99565b610fe3828261113d565b925061089082600081518110610ffb57610ffb614e24565b602002602001015184611246565b8060000361101657505050565b73eeeeeeeeeeeeeeeeeeeeeeeeeeeeeeeeeeeeeeee6001600160a01b03841603611070576040516001600160a01b0383169082156108fc029083906000818181858888f19350505050158015610df7573d6000803e3d6000fd5b6108906001600160a01b0384168383611da0565b6002600154036110f0576040517f08c379a000000000000000000000000000000000000000000000000000000000815260206004820152601f60248201527f5265656e7472616e637947756172643a207265656e7472616e742063616c6c006044820152606401610929565b6002600155565b60028110806111065750600a81115b15610acb576040517f76987d0e00000000000000000000000000000000000000000000000000000000815260040160405180910390fd5b606060006001845161114f9190614ee5565b67ffffffffffffffff81111561116757611167614670565b6040519080825280602002602001820160405280156111c057816020015b6111ad6040518060600160405280600061ffff16815260200160608152602001606081525090565b8152602001906001900390816111855790505b50905060005b815181101561121a578460018201815181106111e4576111e4614e24565b60200260200101518282815181106111fe576111fe614e24565b60200260200101819052506112138160010190565b90506111c6565b50808360405160200161122e929190615437565b60405160208183030381529060405291505092915050565b815161ffff167ffffffffffffffffffffffffffffffffffffffffffffffffffffffffffffffffe01611336577f00000000000000000000000000000000000000000000000000000000000000006001600160a01b031663adf51de183602001516000815181106112b8576112b8614e24565b602002602001015184604001516000815181106112d7576112d7614e24565b602002602001015130856040518563ffffffff1660e01b8152600401611300949392919061552f565b600060405180830381600087803b15801561131a57600080fd5b505af115801561132e573d6000803e3d6000fd5b505050505050565b815161ffff167ffffffffffffffffffffffffffffffffffffffffffffffffffffffffffffffff9016113c2577f00000000000000000000000000000000000000000000000000000000000000006001600160a01b0316635c38449e3061139d856020015190565b8560400151856040518563ffffffff1660e01b8152600401611300949392919061556b565b6040517f0d82421600000000000000000000000000000000000000000000000000000000815260040160405180910390fd5b6060806000805b84518110156114385784818151811061141657611416614e24565b602002602001015160200151518261142e9190614e11565b91506001016113fb565b5060008167ffffffffffffffff81111561145457611454614670565b60405190808252806020026020018201604052801561147d578160200160208202803683370190505b50905060008267ffffffffffffffff81111561149b5761149b614670565b6040519080825280602002602001820160405280156114c4578160200160208202803683370190505b5090506000805b87518110156115cf5760005b8882815181106114e9576114e9614e24565b602002602001015160200151518110156115c65788828151811061150f5761150f614e24565b602002602001015160200151818151811061152c5761152c614e24565b602002602001015185848151811061154657611546614e24565b60200260200101906001600160a01b031690816001600160a01b03168152505088828151811061157857611578614e24565b602002602001015160400151818151811061159557611595614e24565b60200260200101518484815181106115af576115af614e24565b6020908102919091010152600192830192016114d7565b506001016114cb565b5091969095509350505050565b835160008167ffffffffffffffff8111156115f9576115f9614670565b604051908082528060200260200182016040528015611622578160200160208202803683370190505b50905060008267ffffffffffffffff81111561164057611640614670565b604051908082528060200260200182016040528015611669578160200160208202803683370190505b50905060005b838110156117f557600088828151811061168b5761168b614e24565b6020026020010151905060006116b330836001600160a01b0316611e4990919063ffffffff16565b61012d54909150600090620f4240906116d29063ffffffff16846155e3565b6116dc91906155fa565b9050808203828214611788576001600160a01b037f00000000000000000000000000000000000000000000000000000000000000008116908516036117545761174f6001600160a01b0385167f000000000000000000000000000000000000000000000000000000000000000083611009565b611788565b6117886001600160a01b0385167f000000000000000000000000000000000000000000000000000000000000000083611d5c565b81156117a2576117a26001600160a01b0385168a84611d5c565b818686815181106117b5576117b5614e24565b602002602001018181525050808786815181106117d4576117d4614e24565b602002602001018181525050505050506117ee8160010190565b905061166f565b5060008061180287611f06565b91509150856001600160a01b03167f5d6ce85adcad908fcf78bd40c0eb5b27bd4e0759ba3f1603df6aa38fc8b2efb583838c8c89896040516118499695949392919061566e565b60405180910390a2505050505050505050565b60018055565b610acb81336120bb565b611876828261214a565b600082815260c960205260409020610890908261220a565b611898828261221f565b600082815260c96020526040902061089090826122c0565b600054610100900460ff16611947576040517f08c379a000000000000000000000000000000000000000000000000000000000815260206004820152602b60248201527f496e697469616c697a61626c653a20636f6e7472616374206973206e6f74206960448201527f6e697469616c697a696e670000000000000000000000000000000000000000006064820152608401610929565b61194f6122d5565b611957612374565b61195f61241b565b565b6000610b6e8383612507565b60008281526097602090815260408083206001600160a01b038516845290915290205460ff16610867576040517f4ca8886700000000000000000000000000000000000000000000000000000000815260040160405180910390fd5b620f424063ffffffff82161115610acb576040517f58d620b300000000000000000000000000000000000000000000000000000000815260040160405180910390fd5b80600003610acb576040517f7c946ed700000000000000000000000000000000000000000000000000000000815260040160405180910390fd5b60006105f7825490565b836001600160a01b0316836001600160a01b031614611a9b576040517ffa48e42300000000000000000000000000000000000000000000000000000000815260040160405180910390fd5b7f00000000000000000000000000000000000000000000000000000000000000006001600160a01b0390811690851614158015611b8657506040517f9bca0e700000000000000000000000000000000000000000000000000000000081526001600160a01b0385811660048301526000917f000000000000000000000000000000000000000000000000000000000000000090911690639bca0e7090602401602060405180830381865afa158015611b57573d6000803e3d6000fd5b505050506040513d601f19601f82011682018060405250810190611b7b9190615710565b6001600160a01b0316145b15611bbd576040517f2889ee7500000000000000000000000000000000000000000000000000000000815260040160405180910390fd5b73eeeeeeeeeeeeeeeeeeeeeeeeeeeeeeeeeeeeeeee6001600160a01b03851603611c1f57818114611c1a576040517f74ebc29c00000000000000000000000000000000000000000000000000000000815260040160405180910390fd5b610df7565b8015610df7576040517f74ebc29c00000000000000000000000000000000000000000000000000000000815260040160405180910390fd5b801580611c80575073eeeeeeeeeeeeeeeeeeeeeeeeeeeeeeeeeeeeeeee6001600160a01b038516145b610df757610df76001600160a01b038516848484612531565b60005b8151811015610867576000828281518110611cb957611cb9614e24565b602002602001015190506000611ce53083602001516001600160a01b0316611e4990919063ffffffff16565b90506000826060015160001480611cff5750818360600151115b15611d0b575080611d12565b5060608201515b611d48836000015161ffff16846020015185604001518487608001518860a001518960c001518a60e001518b6101000151612582565b505050611d558160010190565b9050611c9c565b80600003611d6957505050565b73eeeeeeeeeeeeeeeeeeeeeeeeeeeeeeeeeeeeeeee6001600160a01b03841603611070576108906001600160a01b038316826138d1565b6040516001600160a01b0383166024820152604481018290526108909084907fa9059cbb00000000000000000000000000000000000000000000000000000000906064015b60408051601f198184030181529190526020810180517bffffffffffffffffffffffffffffffffffffffffffffffffffffffff167fffffffff0000000000000000000000000000000000000000000000000000000090931692909217909152613a1e565b600073eeeeeeeeeeeeeeeeeeeeeeeeeeeeeeeeeeeeeeee6001600160a01b03841603611e8057506001600160a01b038116316105f7565b826040517f70a082310000000000000000000000000000000000000000000000000000000081526001600160a01b03848116600483015291909116906370a0823190602401602060405180830381865afa158015611ee2573d6000803e3d6000fd5b505050506040513d601f19601f82011682018060405250810190610b6e919061572d565b606080825167ffffffffffffffff811115611f2357611f23614670565b604051908082528060200260200182016040528015611f4c578160200160208202803683370190505b50915082516002611f5d91906155e3565b67ffffffffffffffff811115611f7557611f75614670565b604051908082528060200260200182016040528015611f9e578160200160208202803683370190505b50905060005b83518110156120b557838181518110611fbf57611fbf614e24565b602002602001015160000151838281518110611fdd57611fdd614e24565b602002602001019061ffff16908161ffff168152505083818151811061200557612005614e24565b6020026020010151602001518282600261201f91906155e3565b8151811061202f5761202f614e24565b60200260200101906001600160a01b031690816001600160a01b03168152505083818151811061206157612061614e24565b6020026020010151604001518261208483600261207e91906155e3565b60010190565b8151811061209457612094614e24565b6001600160a01b039290921660209283029190910190910152600101611fa4565b50915091565b60008281526097602090815260408083206001600160a01b038516845290915290205460ff16610867576120ee81613b20565b6120f9836020613b32565b60405160200161210a929190615746565b60408051601f19818403018152908290527f08c379a0000000000000000000000000000000000000000000000000000000008252610929916004016157c7565b60008281526097602090815260408083206001600160a01b038516845290915290205460ff166108675760008281526097602090815260408083206001600160a01b0385168452909152902080547fffffffffffffffffffffffffffffffffffffffffffffffffffffffffffffff001660011790556121c63390565b6001600160a01b0316816001600160a01b0316837f2f8788117e7eff1d82e926ec794901d17c78024a50270940304540a733656f0d60405160405180910390a45050565b6000610b6e836001600160a01b038416613d75565b60008281526097602090815260408083206001600160a01b038516845290915290205460ff16156108675760008281526097602090815260408083206001600160a01b038516808552925280832080547fffffffffffffffffffffffffffffffffffffffffffffffffffffffffffffff0016905551339285917ff6391f5c32d9c69d2a47ea670b442974b53935d1edc7fd64eb21e047a839171b9190a45050565b6000610b6e836001600160a01b038416613dc4565b600054610100900460ff1661236c576040517f08c379a000000000000000000000000000000000000000000000000000000000815260206004820152602b60248201527f496e697469616c697a61626c653a20636f6e7472616374206973206e6f74206960448201527f6e697469616c697a696e670000000000000000000000000000000000000000006064820152608401610929565b61195f613ebe565b600054610100900460ff1661240b576040517f08c379a000000000000000000000000000000000000000000000000000000000815260206004820152602b60248201527f496e697469616c697a61626c653a20636f6e7472616374206973206e6f74206960448201527f6e697469616c697a696e670000000000000000000000000000000000000000006064820152608401610929565b612413613f55565b61195f613fec565b600054610100900460ff166124b2576040517f08c379a000000000000000000000000000000000000000000000000000000000815260206004820152602b60248201527f496e697469616c697a61626c653a20636f6e7472616374206973206e6f74206960448201527f6e697469616c697a696e670000000000000000000000000000000000000000006064820152608401610929565b60408051808201909152620186a080825268056bc75e2d63100000602090920182905261012d80547fffffffffffffffffffffffffffffffffffffffffffffffffffffffff0000000016909117905561012e55565b600082600001828154811061251e5761251e614e24565b9060005260206000200154905092915050565b6040516001600160a01b0380851660248301528316604482015260648101829052610df79085907f23b872dd0000000000000000000000000000000000000000000000000000000090608401611de5565b7fffffffffffffffffffffffffffffffffffffffffffffffffffffffffffffffff8901612757576125d4887f000000000000000000000000000000000000000000000000000000000000000088614102565b6040805160038082526080820190925260009160208201606080368337019050509050888160008151811061260b5761260b614e24565b60200260200101906001600160a01b031690816001600160a01b031681525050838160018151811061263f5761263f614e24565b60200260200101906001600160a01b031690816001600160a01b031681525050878160028151811061267357612673614e24565b6001600160a01b0392831660209182029290920101526000908a1673eeeeeeeeeeeeeeeeeeeeeeeeeeeeeeeeeeeeeeee146126af5760006126b1565b875b90507f00000000000000000000000000000000000000000000000000000000000000006001600160a01b031663b77d239b82848b8b60008060006040518863ffffffff1660e01b815260040161270c969594939291906157da565b60206040518083038185885af115801561272a573d6000803e3d6000fd5b50505050506040513d601f19601f8201168201806040525081019061274f919061572d565b5050506138c6565b7ffffffffffffffffffffffffffffffffffffffffffffffffffffffffffffffffe89016128af576127a9887f000000000000000000000000000000000000000000000000000000000000000088614102565b600073eeeeeeeeeeeeeeeeeeeeeeeeeeeeeeeeeeeeeeee6001600160a01b038a16146127d65760006127d8565b865b6040517fd895feee0000000000000000000000000000000000000000000000000000000081526001600160a01b038b811660048301528a81166024830152604482018a90526064820189905260848201889052600060a48301529192507f00000000000000000000000000000000000000000000000000000000000000009091169063d895feee90839060c40160206040518083038185885af1158015612883573d6000803e3d6000fd5b50505050506040513d601f19601f820116820180604052508101906128a8919061572d565b50506138c6565b60038914806128be5750600589145b15612ca85760006001600160a01b03841661292a5760038a14612901577f0000000000000000000000000000000000000000000000000000000000000000612923565b7f00000000000000000000000000000000000000000000000000000000000000005b905061292d565b50825b612938898289614102565b60408051600280825260608201835260009260208301908036833701905050905073eeeeeeeeeeeeeeeeeeeeeeeeeeeeeeeeeeeeeeee6001600160a01b038b1603612a8e577f0000000000000000000000000000000000000000000000000000000000000000816000815181106129b1576129b1614e24565b60200260200101906001600160a01b031690816001600160a01b03168152505088816001815181106129e5576129e5614e24565b6001600160a01b0392831660209182029290920101526040517f7ff36ab500000000000000000000000000000000000000000000000000000000815290831690637ff36ab5908a90612a41908b90869030908d90600401615820565b60006040518083038185885af1158015612a5f573d6000803e3d6000fd5b50505050506040513d6000823e601f3d908101601f19168201604052612a889190810190615855565b506128a8565b73eeeeeeeeeeeeeeeeeeeeeeeeeeeeeeeeeeeeeeee6001600160a01b038a1603612bbd578981600081518110612ac657612ac6614e24565b60200260200101906001600160a01b031690816001600160a01b0316815250507f000000000000000000000000000000000000000000000000000000000000000081600181518110612b1a57612b1a614e24565b6001600160a01b0392831660209182029290920101526040517f18cbafe5000000000000000000000000000000000000000000000000000000008152908316906318cbafe590612b76908b908b90869030908d9060040161588a565b6000604051808303816000875af1158015612b95573d6000803e3d6000fd5b505050506040513d6000823e601f3d908101601f19168201604052612a889190810190615855565b8981600081518110612bd157612bd1614e24565b60200260200101906001600160a01b031690816001600160a01b0316815250508881600181518110612c0557612c05614e24565b6001600160a01b0392831660209182029290920101526040517f38ed1739000000000000000000000000000000000000000000000000000000008152908316906338ed173990612c61908b908b90869030908d9060040161588a565b6000604051808303816000875af1158015612c80573d6000803e3d6000fd5b505050506040513d6000823e601f3d908101601f1916820160405261274f9190810190615855565b7ffffffffffffffffffffffffffffffffffffffffffffffffffffffffffffffffc8901612e225760006001600160a01b038416612d0657507f0000000000000000000000000000000000000000000000000000000000000000612d09565b50825b612d14898289614102565b60408051610100810182526001600160a01b038b811682528a81166020830190815262ffffff8781168486019081523060608601908152608086018c815260a087018f815260c088018f8152600060e08a0190815299517f414bf38900000000000000000000000000000000000000000000000000000000815289518916600482015296518816602488015293519094166044860152905185166064850152516084840152905160a48301525160c48201529251811660e484015290919083169063414bf38990610104016020604051808303816000875af1158015612dfe573d6000803e3d6000fd5b505050506040513d601f19601f8201168201806040525081019061274f919061572d565b7ffffffffffffffffffffffffffffffffffffffffffffffffffffffffffffffffa89016130075760006001600160a01b038416612e8057507f0000000000000000000000000000000000000000000000000000000000000000612e83565b50825b6fffffffffffffffffffffffffffffffff861115612ecd576040517f7d5ee39100000000000000000000000000000000000000000000000000000000815260040160405180910390fd5b612ed8898289614102565b600073eeeeeeeeeeeeeeeeeeeeeeeeeeeeeeeeeeeeeeee6001600160a01b038b1614612f05576000612f07565b875b9050600083806020019051810190612f1f91906158e6565b9050826001600160a01b031663f1c5e014838d8d858c8e6040518763ffffffff1660e01b8152600401612f56959493929190615999565b60206040518083038185885af1158015612f74573d6000803e3d6000fd5b50505050506040513d601f19601f82011682018060405250810190612f999190615a36565b506000612faf6001600160a01b038d1630611e49565b9050600180871614158115801590612fc45750805b15612ffd57612ffd6001600160a01b038e167f000000000000000000000000000000000000000000000000000000000000000084611d5c565b50505050506138c6565b7ffffffffffffffffffffffffffffffffffffffffffffffffffffffffffffffff989016131bf577f000000000000000000000000000000000000000000000000000000000000000061305a898289614102565b6040805160c0810182528481526000602082018190529181016001600160a01b038c1673eeeeeeeeeeeeeeeeeeeeeeeeeeeeeeeeeeeeeeee1461309d578b6130a0565b60005b6001600160a01b031681526020016130dd8b6001600160a01b03166001600160a01b031673eeeeeeeeeeeeeeeeeeeeeeeeeeeeeeeeeeeeeeee1490565b6130e7578a6130ea565b60005b6001600160a01b03908116825260208083018c90526040805180830182526000808252948201528051608081018252308082529281018590528082019290925260608201849052840151939450921615613145576000613147565b895b9050836001600160a01b03166352bbbe298285858d8d6040518663ffffffff1660e01b815260040161317c9493929190615a51565b60206040518083038185885af115801561319a573d6000803e3d6000fd5b50505050506040513d601f19601f82011682018060405250810190612ffd919061572d565b7ffffffffffffffffffffffffffffffffffffffffffffffffffffffffffffffff88901613573576fffffffffffffffffffffffffffffffff861115613230576040517fcd0ac5e600000000000000000000000000000000000000000000000000000000815260040160405180910390fd5b73eeeeeeeeeeeeeeeeeeeeeeeeeeeeeeeeeeeeeeee6001600160a01b0389161415801561328a57507f00000000000000000000000000000000000000000000000000000000000000006001600160a01b0390811690891614155b156132c1576040517f0896c96900000000000000000000000000000000000000000000000000000000815260040160405180910390fd5b7f00000000000000000000000000000000000000000000000000000000000000006001600160a01b0390811690891614801561331a575073eeeeeeeeeeeeeeeeeeeeeeeeeeeeeeeeeeeeeeee6001600160a01b03881614155b15613351576040517f0896c96900000000000000000000000000000000000000000000000000000000815260040160405180910390fd5b61337c887f000000000000000000000000000000000000000000000000000000000000000088614102565b6040517f824316880000000000000000000000000000000000000000000000000000000081526001600160a01b0388811660048301526fffffffffffffffffffffffffffffffff881660248301526000917f000000000000000000000000000000000000000000000000000000000000000090911690638243168890604401602060405180830381865afa158015613418573d6000803e3d6000fd5b505050506040513d601f19601f8201168201806040525081019061343c9190615a36565b905085816fffffffffffffffffffffffffffffffff16101561348a576040517fb34424fd00000000000000000000000000000000000000000000000000000000815260040160405180910390fd5b600073eeeeeeeeeeeeeeeeeeeeeeeeeeeeeeeeeeeeeeee6001600160a01b038b16146134b75760006134b9565b875b6040517f4747919d0000000000000000000000000000000000000000000000000000000081526001600160a01b038b811660048301526fffffffffffffffffffffffffffffffff851660248301529192507f000000000000000000000000000000000000000000000000000000000000000090911690634747919d9083906044016000604051808303818588803b15801561355357600080fd5b505af1158015613567573d6000803e3d6000fd5b505050505050506138c6565b7ffffffffffffffffffffffffffffffffffffffffffffffffffffffffffffffff7890161367a57826001600160a01b0381166135db576040517fa79aa26d00000000000000000000000000000000000000000000000000000000815260040160405180910390fd5b600073eeeeeeeeeeeeeeeeeeeeeeeeeeeeeeeeeeeeeeee6001600160a01b038b161461360857600061360a565b875b90506136178a838a614102565b6040517f3df02124000000000000000000000000000000000000000000000000000000008152600f85900b6004820152608085901d602482015260448101899052606481018890526001600160a01b03831690633df0212490839060840161270c565b7ffffffffffffffffffffffffffffffffffffffffffffffffffffffffffffffff689016138945773eeeeeeeeeeeeeeeeeeeeeeeeeeeeeeeeeeeeeeee6001600160a01b0389161480156136f957507f00000000000000000000000000000000000000000000000000000000000000006001600160a01b03908116908816145b1561376d577f00000000000000000000000000000000000000000000000000000000000000006001600160a01b031663d0e30db0876040518263ffffffff1660e01b81526004016000604051808303818588803b15801561375957600080fd5b505af1158015612ffd573d6000803e3d6000fd5b7f00000000000000000000000000000000000000000000000000000000000000006001600160a01b039081169089161480156137c5575073eeeeeeeeeeeeeeeeeeeeeeeeeeeeeeeeeeeeeeee6001600160a01b038816145b15613862576040517f2e1a7d4d000000000000000000000000000000000000000000000000000000008152600481018790527f00000000000000000000000000000000000000000000000000000000000000006001600160a01b031690632e1a7d4d90602401600060405180830381600087803b15801561384557600080fd5b505af1158015613859573d6000803e3d6000fd5b505050506138c6565b6040517f93f8a1ad00000000000000000000000000000000000000000000000000000000815260040160405180910390fd5b6040517f8260f36600000000000000000000000000000000000000000000000000000000815260040160405180910390fd5b505050505050505050565b8047101561393b576040517f08c379a000000000000000000000000000000000000000000000000000000000815260206004820152601d60248201527f416464726573733a20696e73756666696369656e742062616c616e63650000006044820152606401610929565b6000826001600160a01b03168260405160006040518083038185875af1925050503d8060008114613988576040519150601f19603f3d011682016040523d82523d6000602084013e61398d565b606091505b5050905080610890576040517f08c379a000000000000000000000000000000000000000000000000000000000815260206004820152603a60248201527f416464726573733a20756e61626c6520746f2073656e642076616c75652c207260448201527f6563697069656e74206d617920686176652072657665727465640000000000006064820152608401610929565b6000613a73826040518060400160405280602081526020017f5361666545524332303a206c6f772d6c6576656c2063616c6c206661696c6564815250856001600160a01b03166142009092919063ffffffff16565b9050805160001480613a94575080806020019051810190613a949190615b4a565b610890576040517f08c379a000000000000000000000000000000000000000000000000000000000815260206004820152602a60248201527f5361666545524332303a204552433230206f7065726174696f6e20646964206e60448201527f6f742073756363656564000000000000000000000000000000000000000000006064820152608401610929565b60606105f76001600160a01b03831660145b60606000613b418360026155e3565b613b4c906002614e11565b67ffffffffffffffff811115613b6457613b64614670565b6040519080825280601f01601f191660200182016040528015613b8e576020820181803683370190505b5090507f300000000000000000000000000000000000000000000000000000000000000081600081518110613bc557613bc5614e24565b60200101907effffffffffffffffffffffffffffffffffffffffffffffffffffffffffffff1916908160001a9053507f780000000000000000000000000000000000000000000000000000000000000081600181518110613c2857613c28614e24565b60200101907effffffffffffffffffffffffffffffffffffffffffffffffffffffffffffff1916908160001a9053506000613c648460026155e3565b613c6f906001614e11565b90505b6001811115613d0c577f303132333435363738396162636465660000000000000000000000000000000085600f1660108110613cb057613cb0614e24565b1a60f81b828281518110613cc657613cc6614e24565b60200101907effffffffffffffffffffffffffffffffffffffffffffffffffffffffffffff1916908160001a90535060049490941c93613d0581615b6c565b9050613c72565b508315610b6e576040517f08c379a000000000000000000000000000000000000000000000000000000000815260206004820181905260248201527f537472696e67733a20686578206c656e67746820696e73756666696369656e746044820152606401610929565b6000818152600183016020526040812054613dbc575081546001818101845560008481526020808220909301849055845484825282860190935260409020919091556105f7565b5060006105f7565b60008181526001830160205260408120548015613ead576000613de8600183614ee5565b8554909150600090613dfc90600190614ee5565b9050818114613e61576000866000018281548110613e1c57613e1c614e24565b9060005260206000200154905080876000018481548110613e3f57613e3f614e24565b6000918252602080832090910192909255918252600188019052604090208390555b8554869080613e7257613e72615ba1565b6001900381819060005260206000200160009055905585600101600086815260200190815260200160002060009055600193505050506105f7565b60009150506105f7565b5092915050565b600054610100900460ff1661185c576040517f08c379a000000000000000000000000000000000000000000000000000000000815260206004820152602b60248201527f496e697469616c697a61626c653a20636f6e7472616374206973206e6f74206960448201527f6e697469616c697a696e670000000000000000000000000000000000000000006064820152608401610929565b600054610100900460ff1661195f576040517f08c379a000000000000000000000000000000000000000000000000000000000815260206004820152602b60248201527f496e697469616c697a61626c653a20636f6e7472616374206973206e6f74206960448201527f6e697469616c697a696e670000000000000000000000000000000000000000006064820152608401610929565b600054610100900460ff16614083576040517f08c379a000000000000000000000000000000000000000000000000000000000815260206004820152602b60248201527f496e697469616c697a61626c653a20636f6e7472616374206973206e6f74206960448201527f6e697469616c697a696e670000000000000000000000000000000000000000006064820152608401610929565b60fb80547fffffffffffffffffffffffffffffffffffffffffffffffffffffffffffff000016600a1790556140d87f2172861495e7b85edac73e3cd5fbb42dd675baadf627720e687bcfdaca02509680614217565b61195f7f2172861495e7b85edac73e3cd5fbb42dd675baadf627720e687bcfdaca02509633614262565b73eeeeeeeeeeeeeeeeeeeeeeeeeeeeeeeeeeeeeeee6001600160a01b0384160361412b57505050565b60006001600160a01b0384166040517fdd62ed3e0000000000000000000000000000000000000000000000000000000081523060048201526001600160a01b038581166024830152919091169063dd62ed3e90604401602060405180830381865afa15801561419e573d6000803e3d6000fd5b505050506040513d601f19601f820116820180604052508101906141c2919061572d565b905081811015610df757610df76001600160a01b038516847fffffffffffffffffffffffffffffffffffffffffffffffffffffffffffffffff61426c565b606061420f84846000856142a9565b949350505050565b600082815260976020526040808220600101805490849055905190918391839186917fbd79b86ffe0ab8e8776151514217cd7cacd52c909f66475c3af44e129f0b00ff9190a4505050565b610867828261186c565b73eeeeeeeeeeeeeeeeeeeeeeeeeeeeeeeeeeeeeeee6001600160a01b0384160361429557505050565b6108906001600160a01b03841683836143b5565b60608247101561433b576040517f08c379a000000000000000000000000000000000000000000000000000000000815260206004820152602660248201527f416464726573733a20696e73756666696369656e742062616c616e636520666f60448201527f722063616c6c00000000000000000000000000000000000000000000000000006064820152608401610929565b600080866001600160a01b031685876040516143579190615bd0565b60006040518083038185875af1925050503d8060008114614394576040519150601f19603f3d011682016040523d82523d6000602084013e614399565b606091505b50915091506143aa8783838761448b565b979650505050505050565b604080516001600160a01b038416602482015260448082018490528251808303909101815260649091019091526020810180517bffffffffffffffffffffffffffffffffffffffffffffffffffffffff167f095ea7b300000000000000000000000000000000000000000000000000000000179052614434848261451e565b610df7576040516001600160a01b0384166024820152600060448201526144819085907f095ea7b30000000000000000000000000000000000000000000000000000000090606401611de5565b610df78482613a1e565b6060831561451457825160000361450d576001600160a01b0385163b61450d576040517f08c379a000000000000000000000000000000000000000000000000000000000815260206004820152601d60248201527f416464726573733a2063616c6c20746f206e6f6e2d636f6e74726163740000006044820152606401610929565b508161420f565b61420f83836145c5565b6000806000846001600160a01b03168460405161453b9190615bd0565b6000604051808303816000865af19150503d8060008114614578576040519150601f19603f3d011682016040523d82523d6000602084013e61457d565b606091505b50915091508180156145a75750805115806145a75750808060200190518101906145a79190615b4a565b80156145bc57506001600160a01b0385163b15155b95945050505050565b8151156145d55781518083602001fd5b806040517f08c379a000000000000000000000000000000000000000000000000000000000815260040161092991906157c7565b60006020828403121561461b57600080fd5b81357fffffffff0000000000000000000000000000000000000000000000000000000081168114610b6e57600080fd5b6001600160a01b0381168114610acb57600080fd5b803561466b8161464b565b919050565b7f4e487b7100000000000000000000000000000000000000000000000000000000600052604160045260246000fd5b604051610120810167ffffffffffffffff811182821017156146c3576146c3614670565b60405290565b6040516060810167ffffffffffffffff811182821017156146c3576146c3614670565b6040805190810167ffffffffffffffff811182821017156146c3576146c3614670565b604051601f8201601f1916810167ffffffffffffffff8111828210171561473857614738614670565b604052919050565b600067ffffffffffffffff82111561475a5761475a614670565b50601f01601f191660200190565b600082601f83011261477957600080fd5b813561478c61478782614740565b61470f565b8181528460208386010111156147a157600080fd5b816020850160208301376000918101602001919091529392505050565b600080600080600060a086880312156147d657600080fd5b85356147e18161464b565b945060208601356147f18161464b565b93506040860135925060608601359150608086013567ffffffffffffffff81111561481b57600080fd5b61482788828901614768565b9150509295509295909350565b60006020828403121561484657600080fd5b5035919050565b600067ffffffffffffffff82111561486757614867614670565b5060051b60200190565b61ffff81168114610acb57600080fd5b803561466b81614871565b600082601f83011261489d57600080fd5b813560206148ad6147878361484d565b82815260059290921b840181019181810190868411156148cc57600080fd5b8286015b848110156148f05780356148e38161464b565b83529183019183016148d0565b509695505050505050565b600082601f83011261490c57600080fd5b8135602061491c6147878361484d565b82815260059290921b8401810191818101908684111561493b57600080fd5b8286015b848110156148f0578035835291830191830161493f565b60006149646147878461484d565b8381529050602080820190600585901b84018681111561498357600080fd5b845b81811015614a6057803567ffffffffffffffff808211156149a65760008081fd5b90870190610120828b0312156149bc5760008081fd5b6149c461469f565b6149cd83614881565b81526149da868401614660565b8682015260406149eb818501614660565b90820152606083810135908201526080808401359082015260a0808401359082015260c0614a1a818501614660565b9082015260e083810135908201526101008084013583811115614a3d5760008081fd5b614a498d828701614768565b918301919091525086525050928201928201614985565b505050509392505050565b600082601f830112614a7c57600080fd5b610b6e83833560208501614956565b60008060408385031215614a9e57600080fd5b823567ffffffffffffffff80821115614ab657600080fd5b818501915085601f830112614aca57600080fd5b81356020614ada6147878361484d565b82815260059290921b84018101918181019089841115614af957600080fd5b8286015b84811015614b9f57803586811115614b155760008081fd5b87016060818d03601f1901811315614b2d5760008081fd5b614b356146c9565b86830135614b4281614871565b8152604083013589811115614b575760008081fd5b614b658f898387010161488c565b8289015250908201359088821115614b7d5760008081fd5b614b8b8e88848601016148fb565b604082015285525050918301918301614afd565b5096505086013592505080821115614bb657600080fd5b50614bc385828601614a6b565b9150509250929050565b60008060408385031215614be057600080fd5b823591506020830135614bf28161464b565b809150509250929050565b60008060208385031215614c1057600080fd5b823567ffffffffffffffff80821115614c2857600080fd5b818501915085601f830112614c3c57600080fd5b813581811115614c4b57600080fd5b866020828501011115614c5d57600080fd5b60209290920196919550909350505050565b60008060408385031215614c8257600080fd5b50508035926020909101359150565b600060408284031215614ca357600080fd5b50919050565b60008060008060608587031215614cbf57600080fd5b843567ffffffffffffffff80821115614cd757600080fd5b818701915087601f830112614ceb57600080fd5b813581811115614cfa57600080fd5b8860208260051b8501011115614d0f57600080fd5b60209283019650945050850135614d258161464b565b9396929550929360400135925050565b60008060008060808587031215614d4b57600080fd5b843567ffffffffffffffff80821115614d6357600080fd5b614d6f8883890161488c565b95506020870135915080821115614d8557600080fd5b614d91888389016148fb565b94506040870135915080821115614da757600080fd5b614db3888389016148fb565b93506060870135915080821115614dc957600080fd5b50614dd687828801614768565b91505092959194509250565b7f4e487b7100000000000000000000000000000000000000000000000000000000600052601160045260246000fd5b808201808211156105f7576105f7614de2565b7f4e487b7100000000000000000000000000000000000000000000000000000000600052603260045260246000fd5b61ffff818116838216019080821115613eb757613eb7614de2565b63ffffffff81168114610acb57600080fd5b600060208284031215614e9257600080fd5b8135610b6e81614e6e565b8135614ea881614e6e565b63ffffffff81167fffffffffffffffffffffffffffffffffffffffffffffffffffffffff0000000083541617825550602082013560018201555050565b818103818111156105f7576105f7614de2565b600082357ffffffffffffffffffffffffffffffffffffffffffffffffffffffffffffffee1833603018112614f2c57600080fd5b9190910192915050565b600060208284031215614f4857600080fd5b8135610b6e8161464b565b6000610b6e368484614956565b805161466b81614871565b600082601f830112614f7c57600080fd5b81516020614f8c6147878361484d565b82815260059290921b84018101918181019086841115614fab57600080fd5b8286015b848110156148f05780518352918301918301614faf565b805161466b8161464b565b60005b83811015614fec578181015183820152602001614fd4565b50506000910152565b600082601f83011261500657600080fd5b815161501461478782614740565b81815284602083860101111561502957600080fd5b61420f826020830160208701614fd1565b600082601f83011261504b57600080fd5b8151602061505b6147878361484d565b82815260059290921b8401810191818101908684111561507a57600080fd5b8286015b848110156148f057805167ffffffffffffffff8082111561509f5760008081fd5b818901915061012080601f19848d030112156150bb5760008081fd5b6150c361469f565b6150ce888501614f60565b815260406150dd818601614fc6565b8983015260606150ee818701614fc6565b828401526080915081860151818401525060a0808601518284015260c0915081860151818401525060e0615123818701614fc6565b828401526101009150818601518184015250828501519250838311156151495760008081fd5b6151578d8a85880101614ff5565b90820152865250505091830191830161507e565b6000806040838503121561517e57600080fd5b825167ffffffffffffffff8082111561519657600080fd5b818501915085601f8301126151aa57600080fd5b81516151b86147878261484d565b8082825260208201915060208360051b8601019250888311156151da57600080fd5b602085015b838110156152e2578051858111156151f657600080fd5b86016060818c03601f1901121561520c57600080fd5b6152146146c9565b602082015161522281614871565b815260408201518781111561523657600080fd5b8201603f81018d1361524757600080fd5b60208101516152586147878261484d565b81815260059190911b82016040019060208101908f83111561527957600080fd5b6040840193505b828410156152a45783516152938161464b565b825260209384019390910190615280565b60208501525050506060820151878111156152be57600080fd5b6152cd8d602083860101614f6b565b604083015250845250602092830192016151df565b50602088015190965093505050808211156152fc57600080fd5b50614bc38582860161503a565b600081518084526020808501945080840160005b838110156153395781518752958201959082019060010161531d565b509495945050505050565b6000815180845261535c816020860160208601614fd1565b601f01601f19169290920160200192915050565b600081518084526020808501808196508360051b8101915082860160005b8581101561542a5782840389528151805161ffff168552858101516001600160a01b0390811687870152604080830151821690870152606080830151908701526080808301519087015260a0808301519087015260c0808301519091169086015260e08082015190860152610100908101516101209186018290529061541681870183615344565b9a87019a955050509084019060010161538e565b5091979650505050505050565b60006040808301818452808651808352606092508286019150828160051b8701016020808a016000805b8581101561550e578a85037fffffffffffffffffffffffffffffffffffffffffffffffffffffffffffffffa00187528251805161ffff168652848101518587018a905280518a880181905290860190849060808901905b808310156154e15783516001600160a01b031682529288019260019290920191908801906154b8565b50928c0151888403898e0152926154f88185615309565b9a88019a98505050938501935050600101615461565b505050878203908801526155228189615370565b9998505050505050505050565b60006001600160a01b038087168352856020840152808516604084015250608060608301526155616080830184615344565b9695505050505050565b6000608082016001600160a01b038088168452602060808186015282885180855260a087019150828a01945060005b818110156155b857855185168352948301949183019160010161559a565b505085810360408701526155cc8189615309565b935050505082810360608401526143aa8185615344565b80820281158282048414176105f7576105f7614de2565b600082615630577f4e487b7100000000000000000000000000000000000000000000000000000000600052601260045260246000fd5b500490565b600081518084526020808501945080840160005b838110156153395781516001600160a01b031687529582019590820190600101615649565b60c0808252875190820181905260009060209060e0840190828b01845b828110156156ab57815161ffff168452928401929084019060010161568b565b505050838103828501526156bf818a615635565b91505082810360408401526156d48188615635565b905082810360608401526156e88187615309565b905082810360808401526156fc8186615309565b905082810360a08401526155228185615309565b60006020828403121561572257600080fd5b8151610b6e8161464b565b60006020828403121561573f57600080fd5b5051919050565b7f416363657373436f6e74726f6c3a206163636f756e742000000000000000000081526000835161577e816017850160208801614fd1565b7f206973206d697373696e6720726f6c652000000000000000000000000000000060179184019182015283516157bb816028840160208801614fd1565b01602801949350505050565b602081526000610b6e6020830184615344565b60c0815260006157ed60c0830189615635565b60208301979097525060408101949094526001600160a01b0392831660608501529116608083015260a090910152919050565b8481526080602082015260006158396080830186615635565b6001600160a01b03949094166040830152506060015292915050565b60006020828403121561586757600080fd5b815167ffffffffffffffff81111561587e57600080fd5b61420f84828501614f6b565b85815284602082015260a0604082015260006158a960a0830186615635565b6001600160a01b0394909416606083015250608001529392505050565b80516fffffffffffffffffffffffffffffffff8116811461466b57600080fd5b600060208083850312156158f957600080fd5b825167ffffffffffffffff81111561591057600080fd5b8301601f8101851361592157600080fd5b805161592f6147878261484d565b81815260069190911b8201830190838101908783111561594e57600080fd5b928401925b828410156143aa576040848903121561596c5760008081fd5b6159746146ec565b845181526159838686016158c6565b8187015282526040939093019290840190615953565b600060a082016001600160a01b0380891684526020818916818601526040915060a08286015282885180855260c087019150828a01945060005b81811015615a0a578551805184528401516fffffffffffffffffffffffffffffffff168484015294830194918401916001016159d3565b5050606086018890526fffffffffffffffffffffffffffffffff87166080870152935061556192505050565b600060208284031215615a4857600080fd5b610b6e826158c6565b60e08152845160e08201526000602086015160028110615a9a577f4e487b7100000000000000000000000000000000000000000000000000000000600052602160045260246000fd5b61010083015260408601516001600160a01b03166101208301526060860151615acf6101408401826001600160a01b03169052565b50608086015161016083015260a086015160c0610180840152615af66101a0840182615344565b915050615b3860208301866001600160a01b03808251168352602082015115156020840152806040830151166040840152506060810151151560608301525050565b60a082019390935260c0015292915050565b600060208284031215615b5c57600080fd5b81518015158114610b6e57600080fd5b600081615b7b57615b7b614de2565b507fffffffffffffffffffffffffffffffffffffffffffffffffffffffffffffffff0190565b7f4e487b7100000000000000000000000000000000000000000000000000000000600052603160045260246000fd5b60008251614f2c818460208701614fd156fea164736f6c6343000813000a2172861495e7b85edac73e3cd5fbb42dd675baadf627720e687bcfdaca025096496e697469616c697a61626c653a20636f6e7472616374206973206e6f742069",
  "devdoc": {
    "details": "BancorArbitrage contract",
    "events": {
      "ArbitrageExecuted(address,uint16[],address[],address[],uint256[],uint256[],uint256[])": {
        "details": "triggered after a successful arb is executed"
      },
      "Initialized(uint8)": {
        "details": "Triggered when the contract has been initialized or reinitialized."
      },
      "RewardsUpdated(uint32,uint32,uint256,uint256)": {
        "details": "triggered when the rewards settings are updated"
      },
      "RoleAdminChanged(bytes32,bytes32,bytes32)": {
        "details": "Emitted when `newAdminRole` is set as ``role``'s admin role, replacing `previousAdminRole` `DEFAULT_ADMIN_ROLE` is the starting admin for all roles, despite {RoleAdminChanged} not being emitted signaling this. _Available since v3.1._"
      },
      "RoleGranted(bytes32,address,address)": {
        "details": "Emitted when `account` is granted `role`. `sender` is the account that originated the contract call, an admin role bearer except when using {AccessControl-_setupRole}."
      },
      "RoleRevoked(bytes32,address,address)": {
        "details": "Emitted when `account` is revoked `role`. `sender` is the account that originated the contract call:   - if using `revokeRole`, it is the admin role bearer   - if using `renounceRole`, it is the role bearer (i.e. `account`)"
      }
    },
    "kind": "dev",
    "methods": {
      "constructor": {
        "details": "used to set immutable state variables and initialize the implementation"
      },
      "flashloanAndArbV2((uint16,address[],uint256[])[],(uint16,address,address,uint256,uint256,uint256,address,uint256,bytes)[])": {
        "details": "execute multi-step arbitrage trade between exchanges using one or more flashloans"
      },
      "fundAndArb((uint16,address,address,uint256,uint256,uint256,address,uint256,bytes)[],address,uint256)": {
        "details": "execute multi-step arbitrage trade between exchanges using user fundsmust approve token before executing the function"
      },
      "getRoleAdmin(bytes32)": {
        "details": "Returns the admin role that controls `role`. See {grantRole} and {revokeRole}. To change a role's admin, use {_setRoleAdmin}."
      },
      "getRoleMember(bytes32,uint256)": {
        "details": "Returns one of the accounts that have `role`. `index` must be a value between 0 and {getRoleMemberCount}, non-inclusive. Role bearers are not sorted in any particular way, and their ordering may change at any point. WARNING: When using {getRoleMember} and {getRoleMemberCount}, make sure you perform all queries on the same block. See the following https://forum.openzeppelin.com/t/iterating-over-elements-on-enumerableset-in-openzeppelin-contracts/2296[forum post] for more information."
      },
      "getRoleMemberCount(bytes32)": {
        "details": "Returns the number of accounts that have `role`. Can be used together with {getRoleMember} to enumerate all bearers of a role."
      },
      "grantRole(bytes32,address)": {
        "details": "Grants `role` to `account`. If `account` had not been already granted `role`, emits a {RoleGranted} event. Requirements: - the caller must have ``role``'s admin role. May emit a {RoleGranted} event."
      },
      "hasRole(bytes32,address)": {
        "details": "Returns `true` if `account` has been granted `role`."
      },
      "initialize()": {
        "details": "fully initializes the contract and its parents"
      },
      "onFlashLoan(address,address,uint256,uint256,bytes)": {
        "details": "callback function for bancor V3 flashloanperforms the arbitrage trades"
      },
      "postUpgrade(bytes)": {
        "details": "performs post-upgrade initialization requirements: - this must can be called only once per-upgrade"
      },
      "receiveFlashLoan(address[],uint256[],uint256[],bytes)": {
        "details": "callback function for Balancer flashloan"
      },
      "renounceRole(bytes32,address)": {
        "details": "Revokes `role` from the calling account. Roles are often managed via {grantRole} and {revokeRole}: this function's purpose is to provide a mechanism for accounts to lose their privileges if they are compromised (such as when a trusted device is misplaced). If the calling account had been revoked `role`, emits a {RoleRevoked} event. Requirements: - the caller must be `account`. May emit a {RoleRevoked} event."
      },
      "revokeRole(bytes32,address)": {
        "details": "Revokes `role` from `account`. If `account` had been granted `role`, emits a {RoleRevoked} event. Requirements: - the caller must have ``role``'s admin role. May emit a {RoleRevoked} event."
      },
      "rewards()": {
        "details": "returns the rewards settings"
      },
      "roleAdmin()": {
        "details": "returns the admin role"
      },
      "setRewards((uint32,uint256))": {
        "details": "sets the rewards settings requirements: - the caller must be the admin of the contract"
      },
      "supportsInterface(bytes4)": {
        "details": "See {IERC165-supportsInterface}."
      }
    },
    "version": 1
  },
  "userdoc": {
    "kind": "user",
    "methods": {},
    "version": 1
  },
  "storageLayout": {
    "storage": [
      {
        "astId": 1388,
        "contract": "contracts/arbitrage/BancorArbitrage.sol:BancorArbitrage",
        "label": "_initialized",
        "offset": 0,
        "slot": "0",
        "type": "t_uint8"
      },
      {
        "astId": 1391,
        "contract": "contracts/arbitrage/BancorArbitrage.sol:BancorArbitrage",
        "label": "_initializing",
        "offset": 1,
        "slot": "0",
        "type": "t_bool"
      },
      {
        "astId": 1564,
        "contract": "contracts/arbitrage/BancorArbitrage.sol:BancorArbitrage",
        "label": "_status",
        "offset": 0,
        "slot": "1",
        "type": "t_uint256"
      },
      {
        "astId": 1633,
        "contract": "contracts/arbitrage/BancorArbitrage.sol:BancorArbitrage",
        "label": "__gap",
        "offset": 0,
        "slot": "2",
        "type": "t_array(t_uint256)49_storage"
      },
      {
        "astId": 2005,
        "contract": "contracts/arbitrage/BancorArbitrage.sol:BancorArbitrage",
        "label": "__gap",
        "offset": 0,
        "slot": "51",
        "type": "t_array(t_uint256)50_storage"
      },
      {
        "astId": 2278,
        "contract": "contracts/arbitrage/BancorArbitrage.sol:BancorArbitrage",
        "label": "__gap",
        "offset": 0,
        "slot": "101",
        "type": "t_array(t_uint256)50_storage"
      },
      {
        "astId": 987,
        "contract": "contracts/arbitrage/BancorArbitrage.sol:BancorArbitrage",
        "label": "_roles",
        "offset": 0,
        "slot": "151",
        "type": "t_mapping(t_bytes32,t_struct(RoleData)982_storage)"
      },
      {
        "astId": 1282,
        "contract": "contracts/arbitrage/BancorArbitrage.sol:BancorArbitrage",
        "label": "__gap",
        "offset": 0,
        "slot": "152",
        "type": "t_array(t_uint256)49_storage"
      },
      {
        "astId": 836,
        "contract": "contracts/arbitrage/BancorArbitrage.sol:BancorArbitrage",
        "label": "_roleMembers",
        "offset": 0,
        "slot": "201",
        "type": "t_mapping(t_bytes32,t_struct(AddressSet)3588_storage)"
      },
      {
        "astId": 946,
        "contract": "contracts/arbitrage/BancorArbitrage.sol:BancorArbitrage",
        "label": "__gap",
        "offset": 0,
        "slot": "202",
        "type": "t_array(t_uint256)49_storage"
      },
      {
        "astId": 18009,
        "contract": "contracts/arbitrage/BancorArbitrage.sol:BancorArbitrage",
        "label": "_initializations",
        "offset": 0,
        "slot": "251",
        "type": "t_uint16"
      },
      {
        "astId": 18015,
        "contract": "contracts/arbitrage/BancorArbitrage.sol:BancorArbitrage",
        "label": "__gap",
        "offset": 0,
        "slot": "252",
        "type": "t_array(t_uint256)49_storage"
      },
      {
        "astId": 12254,
        "contract": "contracts/arbitrage/BancorArbitrage.sol:BancorArbitrage",
        "label": "_rewards",
        "offset": 0,
        "slot": "301",
        "type": "t_struct(Rewards)12158_storage"
      },
      {
        "astId": 12256,
        "contract": "contracts/arbitrage/BancorArbitrage.sol:BancorArbitrage",
        "label": "deprecated",
        "offset": 0,
        "slot": "303",
        "type": "t_uint256"
      },
      {
        "astId": 12262,
        "contract": "contracts/arbitrage/BancorArbitrage.sol:BancorArbitrage",
        "label": "__gap",
        "offset": 0,
        "slot": "304",
        "type": "t_array(t_uint256)47_storage"
      }
    ],
    "types": {
      "t_address": {
        "encoding": "inplace",
        "label": "address",
        "numberOfBytes": "20"
      },
      "t_array(t_bytes32)dyn_storage": {
        "base": "t_bytes32",
        "encoding": "dynamic_array",
        "label": "bytes32[]",
        "numberOfBytes": "32"
      },
      "t_array(t_uint256)47_storage": {
        "base": "t_uint256",
        "encoding": "inplace",
        "label": "uint256[47]",
        "numberOfBytes": "1504"
      },
      "t_array(t_uint256)49_storage": {
        "base": "t_uint256",
        "encoding": "inplace",
        "label": "uint256[49]",
        "numberOfBytes": "1568"
      },
      "t_array(t_uint256)50_storage": {
        "base": "t_uint256",
        "encoding": "inplace",
        "label": "uint256[50]",
        "numberOfBytes": "1600"
      },
      "t_bool": {
        "encoding": "inplace",
        "label": "bool",
        "numberOfBytes": "1"
      },
      "t_bytes32": {
        "encoding": "inplace",
        "label": "bytes32",
        "numberOfBytes": "32"
      },
      "t_mapping(t_address,t_bool)": {
        "encoding": "mapping",
        "key": "t_address",
        "label": "mapping(address => bool)",
        "numberOfBytes": "32",
        "value": "t_bool"
      },
      "t_mapping(t_bytes32,t_struct(AddressSet)3588_storage)": {
        "encoding": "mapping",
        "key": "t_bytes32",
        "label": "mapping(bytes32 => struct EnumerableSetUpgradeable.AddressSet)",
        "numberOfBytes": "32",
        "value": "t_struct(AddressSet)3588_storage"
      },
      "t_mapping(t_bytes32,t_struct(RoleData)982_storage)": {
        "encoding": "mapping",
        "key": "t_bytes32",
        "label": "mapping(bytes32 => struct AccessControlUpgradeable.RoleData)",
        "numberOfBytes": "32",
        "value": "t_struct(RoleData)982_storage"
      },
      "t_mapping(t_bytes32,t_uint256)": {
        "encoding": "mapping",
        "key": "t_bytes32",
        "label": "mapping(bytes32 => uint256)",
        "numberOfBytes": "32",
        "value": "t_uint256"
      },
      "t_struct(AddressSet)3588_storage": {
        "encoding": "inplace",
        "label": "struct EnumerableSetUpgradeable.AddressSet",
        "members": [
          {
            "astId": 3587,
            "contract": "contracts/arbitrage/BancorArbitrage.sol:BancorArbitrage",
            "label": "_inner",
            "offset": 0,
            "slot": "0",
            "type": "t_struct(Set)3273_storage"
          }
        ],
        "numberOfBytes": "64"
      },
      "t_struct(Rewards)12158_storage": {
        "encoding": "inplace",
        "label": "struct BancorArbitrage.Rewards",
        "members": [
          {
            "astId": 12155,
            "contract": "contracts/arbitrage/BancorArbitrage.sol:BancorArbitrage",
            "label": "percentagePPM",
            "offset": 0,
            "slot": "0",
            "type": "t_uint32"
          },
          {
            "astId": 12157,
            "contract": "contracts/arbitrage/BancorArbitrage.sol:BancorArbitrage",
            "label": "maxAmount",
            "offset": 0,
            "slot": "1",
            "type": "t_uint256"
          }
        ],
        "numberOfBytes": "64"
      },
      "t_struct(RoleData)982_storage": {
        "encoding": "inplace",
        "label": "struct AccessControlUpgradeable.RoleData",
        "members": [
          {
            "astId": 979,
            "contract": "contracts/arbitrage/BancorArbitrage.sol:BancorArbitrage",
            "label": "members",
            "offset": 0,
            "slot": "0",
            "type": "t_mapping(t_address,t_bool)"
          },
          {
            "astId": 981,
            "contract": "contracts/arbitrage/BancorArbitrage.sol:BancorArbitrage",
            "label": "adminRole",
            "offset": 0,
            "slot": "1",
            "type": "t_bytes32"
          }
        ],
        "numberOfBytes": "64"
      },
      "t_struct(Set)3273_storage": {
        "encoding": "inplace",
        "label": "struct EnumerableSetUpgradeable.Set",
        "members": [
          {
            "astId": 3268,
            "contract": "contracts/arbitrage/BancorArbitrage.sol:BancorArbitrage",
            "label": "_values",
            "offset": 0,
            "slot": "0",
            "type": "t_array(t_bytes32)dyn_storage"
          },
          {
            "astId": 3272,
            "contract": "contracts/arbitrage/BancorArbitrage.sol:BancorArbitrage",
            "label": "_indexes",
            "offset": 0,
            "slot": "1",
            "type": "t_mapping(t_bytes32,t_uint256)"
          }
        ],
        "numberOfBytes": "64"
      },
      "t_uint16": {
        "encoding": "inplace",
        "label": "uint16",
        "numberOfBytes": "2"
      },
      "t_uint256": {
        "encoding": "inplace",
        "label": "uint256",
        "numberOfBytes": "32"
      },
      "t_uint32": {
        "encoding": "inplace",
        "label": "uint32",
        "numberOfBytes": "4"
      },
      "t_uint8": {
        "encoding": "inplace",
        "label": "uint8",
        "numberOfBytes": "1"
      }
    }
  }
}